{
  "contractName": "DeckNFT",
  "abi": [
    {
      "inputs": [
        {
          "internalType": "uint256",
          "name": "_mintFeePerToken",
          "type": "uint256"
        },
        {
          "internalType": "uint256",
          "name": "_maxDeck",
          "type": "uint256"
        },
        {
          "internalType": "string",
          "name": "_defaultURI",
          "type": "string"
        }
      ],
      "stateMutability": "nonpayable",
      "type": "constructor"
    },
    {
      "anonymous": false,
      "inputs": [
        {
          "indexed": true,
          "internalType": "address",
          "name": "owner",
          "type": "address"
        },
        {
          "indexed": true,
          "internalType": "address",
          "name": "approved",
          "type": "address"
        },
        {
          "indexed": true,
          "internalType": "uint256",
          "name": "tokenId",
          "type": "uint256"
        }
      ],
      "name": "Approval",
      "type": "event"
    },
    {
      "anonymous": false,
      "inputs": [
        {
          "indexed": true,
          "internalType": "address",
          "name": "owner",
          "type": "address"
        },
        {
          "indexed": true,
          "internalType": "address",
          "name": "operator",
          "type": "address"
        },
        {
          "indexed": false,
          "internalType": "bool",
          "name": "approved",
          "type": "bool"
        }
      ],
      "name": "ApprovalForAll",
      "type": "event"
    },
    {
      "anonymous": false,
      "inputs": [
        {
          "indexed": true,
          "internalType": "address",
          "name": "previousOwner",
          "type": "address"
        },
        {
          "indexed": true,
          "internalType": "address",
          "name": "newOwner",
          "type": "address"
        }
      ],
      "name": "OwnershipTransferred",
      "type": "event"
    },
    {
      "anonymous": false,
      "inputs": [
        {
          "indexed": true,
          "internalType": "address",
          "name": "from",
          "type": "address"
        },
        {
          "indexed": true,
          "internalType": "address",
          "name": "to",
          "type": "address"
        },
        {
          "indexed": true,
          "internalType": "uint256",
          "name": "tokenId",
          "type": "uint256"
        }
      ],
      "name": "Transfer",
      "type": "event"
    },
    {
      "inputs": [],
      "name": "LIMIT_TOKEN_PER_TX",
      "outputs": [
        {
          "internalType": "uint256",
          "name": "",
          "type": "uint256"
        }
      ],
      "stateMutability": "view",
      "type": "function",
      "constant": true
    },
    {
      "inputs": [],
      "name": "MAX_DECK",
      "outputs": [
        {
          "internalType": "uint256",
          "name": "",
          "type": "uint256"
        }
      ],
      "stateMutability": "view",
      "type": "function",
      "constant": true
    },
    {
      "inputs": [],
      "name": "MINT_FEE_PER_TOKEN",
      "outputs": [
        {
          "internalType": "uint256",
          "name": "",
          "type": "uint256"
        }
      ],
      "stateMutability": "view",
      "type": "function",
      "constant": true
    },
    {
      "inputs": [
        {
          "internalType": "address",
          "name": "to",
          "type": "address"
        },
        {
          "internalType": "uint256",
          "name": "tokenId",
          "type": "uint256"
        }
      ],
      "name": "approve",
      "outputs": [],
      "stateMutability": "nonpayable",
      "type": "function"
    },
    {
      "inputs": [
        {
          "internalType": "address",
          "name": "owner",
          "type": "address"
        }
      ],
      "name": "balanceOf",
      "outputs": [
        {
          "internalType": "uint256",
          "name": "",
          "type": "uint256"
        }
      ],
      "stateMutability": "view",
      "type": "function",
      "constant": true
    },
    {
      "inputs": [],
      "name": "baseURI",
      "outputs": [
        {
          "internalType": "string",
          "name": "",
          "type": "string"
        }
      ],
      "stateMutability": "view",
      "type": "function",
      "constant": true
    },
    {
      "inputs": [],
      "name": "defaultURI",
      "outputs": [
        {
          "internalType": "string",
          "name": "",
          "type": "string"
        }
      ],
      "stateMutability": "view",
      "type": "function",
      "constant": true
    },
    {
      "inputs": [
        {
          "internalType": "uint256",
          "name": "tokenId",
          "type": "uint256"
        }
      ],
      "name": "getApproved",
      "outputs": [
        {
          "internalType": "address",
          "name": "",
          "type": "address"
        }
      ],
      "stateMutability": "view",
      "type": "function",
      "constant": true
    },
    {
      "inputs": [
        {
          "internalType": "address",
          "name": "owner",
          "type": "address"
        },
        {
          "internalType": "address",
          "name": "operator",
          "type": "address"
        }
      ],
      "name": "isApprovedForAll",
      "outputs": [
        {
          "internalType": "bool",
          "name": "",
          "type": "bool"
        }
      ],
      "stateMutability": "view",
      "type": "function",
      "constant": true
    },
    {
      "inputs": [],
      "name": "name",
      "outputs": [
        {
          "internalType": "string",
          "name": "",
          "type": "string"
        }
      ],
      "stateMutability": "view",
      "type": "function",
      "constant": true
    },
    {
      "inputs": [],
      "name": "owner",
      "outputs": [
        {
          "internalType": "address",
          "name": "",
          "type": "address"
        }
      ],
      "stateMutability": "view",
      "type": "function",
      "constant": true
    },
    {
      "inputs": [
        {
          "internalType": "uint256",
          "name": "tokenId",
          "type": "uint256"
        }
      ],
      "name": "ownerOf",
      "outputs": [
        {
          "internalType": "address",
          "name": "",
          "type": "address"
        }
      ],
      "stateMutability": "view",
      "type": "function",
      "constant": true
    },
    {
      "inputs": [],
      "name": "renounceOwnership",
      "outputs": [],
      "stateMutability": "nonpayable",
      "type": "function"
    },
    {
      "inputs": [
        {
          "internalType": "address",
          "name": "from",
          "type": "address"
        },
        {
          "internalType": "address",
          "name": "to",
          "type": "address"
        },
        {
          "internalType": "uint256",
          "name": "tokenId",
          "type": "uint256"
        }
      ],
      "name": "safeTransferFrom",
      "outputs": [],
      "stateMutability": "nonpayable",
      "type": "function"
    },
    {
      "inputs": [
        {
          "internalType": "address",
          "name": "from",
          "type": "address"
        },
        {
          "internalType": "address",
          "name": "to",
          "type": "address"
        },
        {
          "internalType": "uint256",
          "name": "tokenId",
          "type": "uint256"
        },
        {
          "internalType": "bytes",
          "name": "_data",
          "type": "bytes"
        }
      ],
      "name": "safeTransferFrom",
      "outputs": [],
      "stateMutability": "nonpayable",
      "type": "function"
    },
    {
      "inputs": [
        {
          "internalType": "address",
          "name": "operator",
          "type": "address"
        },
        {
          "internalType": "bool",
          "name": "approved",
          "type": "bool"
        }
      ],
      "name": "setApprovalForAll",
      "outputs": [],
      "stateMutability": "nonpayable",
      "type": "function"
    },
    {
      "inputs": [
        {
          "internalType": "uint256",
          "name": "_mintFeePerToken",
          "type": "uint256"
        }
      ],
      "name": "setMintFee",
      "outputs": [
        {
          "internalType": "bool",
          "name": "",
          "type": "bool"
        }
      ],
      "stateMutability": "nonpayable",
      "type": "function"
    },
    {
      "inputs": [],
      "name": "status",
      "outputs": [
        {
          "internalType": "bool",
          "name": "",
          "type": "bool"
        }
      ],
      "stateMutability": "view",
      "type": "function",
      "constant": true
    },
    {
      "inputs": [
        {
          "internalType": "bytes4",
          "name": "interfaceId",
          "type": "bytes4"
        }
      ],
      "name": "supportsInterface",
      "outputs": [
        {
          "internalType": "bool",
          "name": "",
          "type": "bool"
        }
      ],
      "stateMutability": "view",
      "type": "function",
      "constant": true
    },
    {
      "inputs": [],
      "name": "symbol",
      "outputs": [
        {
          "internalType": "string",
          "name": "",
          "type": "string"
        }
      ],
      "stateMutability": "view",
      "type": "function",
      "constant": true
    },
    {
      "inputs": [],
      "name": "toggleActive",
      "outputs": [
        {
          "internalType": "bool",
          "name": "",
          "type": "bool"
        }
      ],
      "stateMutability": "nonpayable",
      "type": "function"
    },
    {
      "inputs": [
        {
          "internalType": "uint256",
          "name": "index",
          "type": "uint256"
        }
      ],
      "name": "tokenByIndex",
      "outputs": [
        {
          "internalType": "uint256",
          "name": "",
          "type": "uint256"
        }
      ],
      "stateMutability": "view",
      "type": "function",
      "constant": true
    },
    {
      "inputs": [
        {
          "internalType": "address",
          "name": "owner",
          "type": "address"
        },
        {
          "internalType": "uint256",
          "name": "index",
          "type": "uint256"
        }
      ],
      "name": "tokenOfOwnerByIndex",
      "outputs": [
        {
          "internalType": "uint256",
          "name": "",
          "type": "uint256"
        }
      ],
      "stateMutability": "view",
      "type": "function",
      "constant": true
    },
    {
      "inputs": [],
      "name": "totalSupply",
      "outputs": [
        {
          "internalType": "uint256",
          "name": "",
          "type": "uint256"
        }
      ],
      "stateMutability": "view",
      "type": "function",
      "constant": true
    },
    {
      "inputs": [
        {
          "internalType": "address",
          "name": "from",
          "type": "address"
        },
        {
          "internalType": "address",
          "name": "to",
          "type": "address"
        },
        {
          "internalType": "uint256",
          "name": "tokenId",
          "type": "uint256"
        }
      ],
      "name": "transferFrom",
      "outputs": [],
      "stateMutability": "nonpayable",
      "type": "function"
    },
    {
      "inputs": [
        {
          "internalType": "address",
          "name": "newOwner",
          "type": "address"
        }
      ],
      "name": "transferOwnership",
      "outputs": [],
      "stateMutability": "nonpayable",
      "type": "function"
    },
    {
      "inputs": [],
      "name": "withdraw",
      "outputs": [],
      "stateMutability": "nonpayable",
      "type": "function"
    },
    {
      "inputs": [],
      "name": "baseTokenURI",
      "outputs": [
        {
          "internalType": "string",
          "name": "",
          "type": "string"
        }
      ],
      "stateMutability": "view",
      "type": "function",
      "constant": true
    },
    {
      "inputs": [
        {
          "internalType": "string",
          "name": "_defaultURI",
          "type": "string"
        }
      ],
      "name": "setDefaultURI",
      "outputs": [],
      "stateMutability": "nonpayable",
      "type": "function"
    },
    {
      "inputs": [
        {
          "internalType": "uint256",
          "name": "_optionId",
          "type": "uint256"
        }
      ],
      "name": "tokenURI",
      "outputs": [
        {
          "internalType": "string",
          "name": "",
          "type": "string"
        }
      ],
      "stateMutability": "view",
      "type": "function",
      "constant": true
    },
    {
      "inputs": [
        {
          "internalType": "uint256",
          "name": "numberToken",
          "type": "uint256"
        }
      ],
      "name": "mintDeck",
      "outputs": [
        {
          "internalType": "bool",
          "name": "",
          "type": "bool"
        }
      ],
      "stateMutability": "payable",
      "type": "function",
      "payable": true
    }
  ],
  "bytecode": "0x60806040523480156200001157600080fd5b506040516200292338038062002923833981810160405260608110156200003757600080fd5b815160208301516040808501805191519395929483019291846401000000008211156200006357600080fd5b9083019060208201858111156200007957600080fd5b82516401000000008111828201881017156200009457600080fd5b82525081516020918201929091019080838360005b83811015620000c3578181015183820152602001620000a9565b50505050905090810190601f168015620000f15780820380516001836020036101000a031916815260200191505b506040525050508282604051806040016040528060048152602001634465636b60e01b8152506040518060400160405280600381526020016211911560ea1b8152506000620001456200024e60201b60201c565b600080546001600160a01b0319166001600160a01b0383169081178255604051929350917f8be0079c531659141344cd1fd0a4f28419497f9722a3daafe3b4186f6b6457e0908290a350620001aa6301ffc9a760e01b6001600160e01b036200025316565b8151620001bf906007906020850190620002db565b508051620001d5906008906020840190620002db565b50620001f16380ac58cd60e01b6001600160e01b036200025316565b6200020c635b5e139f60e01b6001600160e01b036200025316565b6200022763780e9d6360e01b6001600160e01b036200025316565b5050600b55600c5580516200024490600e906020840190620002db565b505050506200037d565b335b90565b6001600160e01b03198082161415620002b3576040805162461bcd60e51b815260206004820152601c60248201527f4552433136353a20696e76616c696420696e7465726661636520696400000000604482015290519081900360640190fd5b6001600160e01b0319166000908152600160208190526040909120805460ff19169091179055565b828054600181600116156101000203166002900490600052602060002090601f016020900481019282601f106200031e57805160ff19168380011785556200034e565b828001600101855582156200034e579182015b828111156200034e57825182559160200191906001019062000331565b506200035c92915062000360565b5090565b6200025091905b808211156200035c576000815560010162000367565b612596806200038d6000396000f3fe6080604052600436106101685760003560e01c806301ffc9a71461016d57806306fdde03146101b5578063081812fc1461023f578063095ea7b31461028557806318160ddd146102c0578063200d2ed2146102e757806323b872dd146102fc57806329c68dc11461033f5780632f745c59146103545780633a367a671461038d5780633ccfd60b146103a257806342842e0e146103b75780634f6ccce7146103fa5780636352211e146104245780636c0360eb1461044e57806370a0823114610463578063715018a6146104965780638da5cb5b146104ab57806395d89b41146104c0578063a22cb465146104d5578063b88d4fde14610510578063c24252b2146105e1578063c87b56dd146105f6578063d547cfb714610620578063da1b9e0814610635578063e985e9c5146106e6578063eddd0d9c14610721578063ee28b4a01461074b578063f2fde38b14610768578063f45362311461079b578063fe235835146107b0575b600080fd5b34801561017957600080fd5b506101a16004803603602081101561019057600080fd5b50356001600160e01b0319166107c5565b604080519115158252519081900360200190f35b3480156101c157600080fd5b506101ca6107e8565b6040805160208082528351818301528351919283929083019185019080838360005b838110156102045781810151838201526020016101ec565b50505050905090810190601f1680156102315780820380516001836020036101000a031916815260200191505b509250505060405180910390f35b34801561024b57600080fd5b506102696004803603602081101561026257600080fd5b503561087f565b604080516001600160a01b039092168252519081900360200190f35b34801561029157600080fd5b506102be600480360360408110156102a857600080fd5b506001600160a01b0381351690602001356108e1565b005b3480156102cc57600080fd5b506102d56109bc565b60408051918252519081900360200190f35b3480156102f357600080fd5b506101a16109cd565b34801561030857600080fd5b506102be6004803603606081101561031f57600080fd5b506001600160a01b038135811691602081013590911690604001356109d6565b34801561034b57600080fd5b506101a1610a2d565b34801561036057600080fd5b506102d56004803603604081101561037757600080fd5b506001600160a01b038135169060200135610aa9565b34801561039957600080fd5b506101ca610ada565b3480156103ae57600080fd5b506102be610b68565b3480156103c357600080fd5b506102be600480360360608110156103da57600080fd5b506001600160a01b03813581169160208101359091169060400135610bfd565b34801561040657600080fd5b506102d56004803603602081101561041d57600080fd5b5035610c18565b34801561043057600080fd5b506102696004803603602081101561044757600080fd5b5035610c34565b34801561045a57600080fd5b506101ca610c62565b34801561046f57600080fd5b506102d56004803603602081101561048657600080fd5b50356001600160a01b0316610cc3565b3480156104a257600080fd5b506102be610d2b565b3480156104b757600080fd5b50610269610dd7565b3480156104cc57600080fd5b506101ca610de6565b3480156104e157600080fd5b506102be600480360360408110156104f857600080fd5b506001600160a01b0381351690602001351515610e47565b34801561051c57600080fd5b506102be6004803603608081101561053357600080fd5b6001600160a01b03823581169260208101359091169160408201359190810190608081016060820135600160201b81111561056d57600080fd5b82018360208201111561057f57600080fd5b803590602001918460018302840111600160201b831117156105a057600080fd5b91908080601f016020809104026020016040519081016040528093929190818152602001838380828437600092019190915250929550610f48945050505050565b3480156105ed57600080fd5b506102d5610fa6565b34801561060257600080fd5b506101ca6004803603602081101561061957600080fd5b5035610fab565b34801561062c57600080fd5b506101ca61107e565b34801561064157600080fd5b506102be6004803603602081101561065857600080fd5b810190602081018135600160201b81111561067257600080fd5b82018360208201111561068457600080fd5b803590602001918460018302840111600160201b831117156106a557600080fd5b91908080601f0160208091040260200160405190810160405280939291908181526020018383808284376000920191909152509295506110df945050505050565b3480156106f257600080fd5b506101a16004803603604081101561070957600080fd5b506001600160a01b0381358116916020013516611154565b34801561072d57600080fd5b506101a16004803603602081101561074457600080fd5b5035611182565b6101a16004803603602081101561076157600080fd5b5035611243565b34801561077457600080fd5b506102be6004803603602081101561078b57600080fd5b50356001600160a01b03166113a7565b3480156107a757600080fd5b506102d56114a9565b3480156107bc57600080fd5b506102d56114af565b6001600160e01b0319811660009081526001602052604090205460ff165b919050565b60078054604080516020601f60026000196101006001881615020190951694909404938401819004810282018101909252828152606093909290918301828280156108745780601f1061084957610100808354040283529160200191610874565b820191906000526020600020905b81548152906001019060200180831161085757829003601f168201915b505050505090505b90565b600061088a826114b5565b6108c55760405162461bcd60e51b815260040180806020018281038252602c81526020018061249a602c913960400191505060405180910390fd5b506000908152600560205260409020546001600160a01b031690565b60006108ec82610c34565b9050806001600160a01b0316836001600160a01b0316141561093f5760405162461bcd60e51b815260040180806020018281038252602181526020018061250f6021913960400191505060405180910390fd5b806001600160a01b03166109516114c8565b6001600160a01b0316148061097257506109728161096d6114c8565b611154565b6109ad5760405162461bcd60e51b81526004018080602001828103825260388152602001806123cc6038913960400191505060405180910390fd5b6109b783836114cc565b505050565b60006109c8600361153a565b905090565b600d5460ff1681565b6109e76109e16114c8565b82611545565b610a225760405162461bcd60e51b81526004018080602001828103825260318152602001806125306031913960400191505060405180910390fd5b6109b78383836115e1565b6000610a376114c8565b6001600160a01b0316610a48610dd7565b6001600160a01b031614610a91576040805162461bcd60e51b815260206004820181905260248201526000805160206124c6833981519152604482015290519081900360640190fd5b50600d805460ff19811660ff90911615179055600190565b6001600160a01b0382166000908152600260205260408120610ad1908363ffffffff61173f16565b90505b92915050565b600e805460408051602060026001851615610100026000190190941693909304601f81018490048402820184019092528181529291830182828015610b605780601f10610b3557610100808354040283529160200191610b60565b820191906000526020600020905b815481529060010190602001808311610b4357829003601f168201915b505050505081565b610b706114c8565b6001600160a01b0316610b81610dd7565b6001600160a01b031614610bca576040805162461bcd60e51b815260206004820181905260248201526000805160206124c6833981519152604482015290519081900360640190fd5b6040514790339082156108fc029083906000818181858888f19350505050158015610bf9573d6000803e3d6000fd5b5050565b6109b783838360405180602001604052806000815250610f48565b600080610c2c60038463ffffffff61174b16565b509392505050565b6000610ad48260405180606001604052806029815260200161242e602991396003919063ffffffff61176716565b600a8054604080516020601f60026000196101006001881615020190951694909404938401819004810282018101909252828152606093909290918301828280156108745780601f1061084957610100808354040283529160200191610874565b60006001600160a01b038216610d0a5760405162461bcd60e51b815260040180806020018281038252602a815260200180612404602a913960400191505060405180910390fd5b6001600160a01b0382166000908152600260205260409020610ad49061153a565b610d336114c8565b6001600160a01b0316610d44610dd7565b6001600160a01b031614610d8d576040805162461bcd60e51b815260206004820181905260248201526000805160206124c6833981519152604482015290519081900360640190fd5b600080546040516001600160a01b03909116907f8be0079c531659141344cd1fd0a4f28419497f9722a3daafe3b4186f6b6457e0908390a3600080546001600160a01b0319169055565b6000546001600160a01b031690565b60088054604080516020601f60026000196101006001881615020190951694909404938401819004810282018101909252828152606093909290918301828280156108745780601f1061084957610100808354040283529160200191610874565b610e4f6114c8565b6001600160a01b0316826001600160a01b03161415610eb1576040805162461bcd60e51b815260206004820152601960248201527822a9219b99189d1030b8383937bb32903a379031b0b63632b960391b604482015290519081900360640190fd5b8060066000610ebe6114c8565b6001600160a01b03908116825260208083019390935260409182016000908120918716808252919093529120805460ff191692151592909217909155610f026114c8565b60408051841515815290516001600160a01b0392909216917f17307eab39ab6107e8899845ad3d59bd9653f200f220920489ca2b5937696c319181900360200190a35050565b610f59610f536114c8565b83611545565b610f945760405162461bcd60e51b81526004018080602001828103825260318152602001806125306031913960400191505060405180910390fd5b610fa08484848461177e565b50505050565b600a81565b6060600e610fb8836117d0565b60405160200180838054600181600116156101000203166002900480156110165780601f10610ff4576101008083540402835291820191611016565b820191906000526020600020905b815481529060010190602001808311611002575b5050825160208401908083835b602083106110425780518252601f199092019160209182019101611023565b6001836020036101000a038019825116818451168082178552505050505050905001925050506040516020818303038152906040529050919050565b600e8054604080516020601f60026000196101006001881615020190951694909404938401819004810282018101909252828152606093909290918301828280156108745780601f1061084957610100808354040283529160200191610874565b6110e76114c8565b6001600160a01b03166110f8610dd7565b6001600160a01b031614611141576040805162461bcd60e51b815260206004820181905260248201526000805160206124c6833981519152604482015290519081900360640190fd5b8051610bf990600e906020840190612243565b6001600160a01b03918216600090815260066020908152604080832093909416825291909152205460ff1690565b600061118c6114c8565b6001600160a01b031661119d610dd7565b6001600160a01b0316146111e6576040805162461bcd60e51b815260206004820181905260248201526000805160206124c6833981519152604482015290519081900360640190fd5b600d5460ff161561123a576040805162461bcd60e51b815260206004820152601960248201527821b7b73a3930b1ba1036bab9ba1031329037b3333634b7329760391b604482015290519081900360640190fd5b50600c55600190565b600d5460009060ff16611298576040805162461bcd60e51b815260206004820152601860248201527721b7b73a3930b1ba1036bab9ba1031329037b73634b7329760411b604482015290519081900360640190fd5b816112a16109bc565b600a8211156112ee576040805162461bcd60e51b8152602060048201526014602482015273139d5b58995c88151bdad95b881a5b9d985b1a5960621b604482015290519081900360640190fd5b600c5461130290839063ffffffff6118ab16565b341015611346576040805162461bcd60e51b815260206004820152600d60248201526c2830bcb6b2b73a1032b93937b960991b604482015290519081900360640190fd5b600b54611359828463ffffffff61190416565b10611396576040805162461bcd60e51b815260206004820152600860248201526714dbdb19081bdd5d60c21b604482015290519081900360640190fd5b61139f8461195c565b949350505050565b6113af6114c8565b6001600160a01b03166113c0610dd7565b6001600160a01b031614611409576040805162461bcd60e51b815260206004820181905260248201526000805160206124c6833981519152604482015290519081900360640190fd5b6001600160a01b03811661144e5760405162461bcd60e51b81526004018080602001828103825260268152602001806123306026913960400191505060405180910390fd5b600080546040516001600160a01b03808516939216917f8be0079c531659141344cd1fd0a4f28419497f9722a3daafe3b4186f6b6457e091a3600080546001600160a01b0319166001600160a01b0392909216919091179055565b600b5481565b600c5481565b6000610ad460038363ffffffff6119a116565b3390565b600081815260056020526040902080546001600160a01b0319166001600160a01b038416908117909155819061150182610c34565b6001600160a01b03167f8c5be1e5ebec7d5bd14f71427d1e84f3dd0314c0f7b2291e5b200ac8c7c3b92560405160405180910390a45050565b6000610ad4826119ad565b6000611550826114b5565b61158b5760405162461bcd60e51b815260040180806020018281038252602c8152602001806123a0602c913960400191505060405180910390fd5b600061159683610c34565b9050806001600160a01b0316846001600160a01b031614806115d15750836001600160a01b03166115c68461087f565b6001600160a01b0316145b8061139f575061139f8185611154565b826001600160a01b03166115f482610c34565b6001600160a01b0316146116395760405162461bcd60e51b81526004018080602001828103825260298152602001806124e66029913960400191505060405180910390fd5b6001600160a01b03821661167e5760405162461bcd60e51b81526004018080602001828103825260248152602001806123566024913960400191505060405180910390fd5b6116898383836109b7565b6116946000826114cc565b6001600160a01b03831660009081526002602052604090206116bc908263ffffffff6119b116565b506001600160a01b03821660009081526002602052604090206116e5908263ffffffff6119bd16565b506116f86003828463ffffffff6119c916565b5080826001600160a01b0316846001600160a01b03167fddf252ad1be2c89b69c2b068fc378daa952ba7f163c4a11628f55a4df523b3ef60405160405180910390a4505050565b6000610ad183836119df565b600080808061175a8686611a43565b9097909650945050505050565b6000611774848484611abe565b90505b9392505050565b6117898484846115e1565b61179584848484611b88565b610fa05760405162461bcd60e51b81526004018080602001828103825260328152602001806122fe6032913960400191505060405180910390fd5b6060816117f557506040805180820190915260018152600360fc1b60208201526107e3565b8160005b811561180d57600101600a820491506117f9565b60608167ffffffffffffffff8111801561182657600080fd5b506040519080825280601f01601f191660200182016040528015611851576020820181803683370190505b50859350905060001982015b83156118a257600a840660300160f81b8282806001900393508151811061188057fe5b60200101906001600160f81b031916908160001a905350600a8404935061185d565b50949350505050565b6000826118ba57506000610ad4565b828202828482816118c757fe5b0414610ad15760405162461bcd60e51b81526004018080602001828103825260218152602001806124796021913960400191505060405180910390fd5b600082820183811015610ad1576040805162461bcd60e51b815260206004820152601b60248201527a536166654d6174683a206164646974696f6e206f766572666c6f7760281b604482015290519081900360640190fd5b6000805b828110156119985760006119726109bc565b9050600b5481101561198f5761198f6119896114c8565b82611d08565b50600101611960565b50600192915050565b6000610ad18383611d22565b5490565b6000610ad18383611d3a565b6000610ad18383611e00565b600061177484846001600160a01b038516611e4a565b81546000908210611a215760405162461bcd60e51b81526004018080602001828103825260228152602001806122dc6022913960400191505060405180910390fd5b826000018281548110611a3057fe5b9060005260206000200154905092915050565b815460009081908310611a875760405162461bcd60e51b81526004018080602001828103825260228152602001806124576022913960400191505060405180910390fd5b6000846000018481548110611a9857fe5b906000526020600020906002020190508060000154816001015492509250509250929050565b60008281526001840160205260408120548281611b595760405162461bcd60e51b81526004018080602001828103825283818151815260200191508051906020019080838360005b83811015611b1e578181015183820152602001611b06565b50505050905090810190601f168015611b4b5780820380516001836020036101000a031916815260200191505b509250505060405180910390fd5b50846000016001820381548110611b6c57fe5b9060005260206000209060020201600101549150509392505050565b6000611b9c846001600160a01b0316611ee1565b611ba85750600161139f565b6060611cce630a85bd0160e11b611bbd6114c8565b88878760405160240180856001600160a01b03166001600160a01b03168152602001846001600160a01b03166001600160a01b0316815260200183815260200180602001828103825283818151815260200191508051906020019080838360005b83811015611c36578181015183820152602001611c1e565b50505050905090810190601f168015611c635780820380516001836020036101000a031916815260200191505b5095505050505050604051602081830303815290604052906001600160e01b0319166020820180516001600160e01b0383818316178352505050506040518060600160405280603281526020016122fe603291396001600160a01b038816919063ffffffff611ee716565b90506000818060200190516020811015611ce757600080fd5b50516001600160e01b031916630a85bd0160e11b1492505050949350505050565b610bf9828260405180602001604052806000815250611ef6565b60009081526001919091016020526040902054151590565b60008181526001830160205260408120548015611df65783546000198083019190810190600090879083908110611d6d57fe5b9060005260206000200154905080876000018481548110611d8a57fe5b600091825260208083209091019290925582815260018981019092526040902090840190558654879080611dba57fe5b60019003818190600052602060002001600090559055866001016000878152602001908152602001600020600090556001945050505050610ad4565b6000915050610ad4565b6000611e0c8383611d22565b611e4257508154600181810184556000848152602080822090930184905584548482528286019093526040902091909155610ad4565b506000610ad4565b600082815260018401602052604081205480611eaf575050604080518082018252838152602080820184815286546001818101895560008981528481209551600290930290950191825591519082015586548684528188019092529290912055611777565b82856000016001830381548110611ec257fe5b9060005260206000209060020201600101819055506000915050611777565b3b151590565b60606117748484600085611f48565b611f0083836120a4565b611f0d6000848484611b88565b6109b75760405162461bcd60e51b81526004018080602001828103825260328152602001806122fe6032913960400191505060405180910390fd5b606082471015611f895760405162461bcd60e51b815260040180806020018281038252602681526020018061237a6026913960400191505060405180910390fd5b611f9285611ee1565b611fe3576040805162461bcd60e51b815260206004820152601d60248201527f416464726573733a2063616c6c20746f206e6f6e2d636f6e7472616374000000604482015290519081900360640190fd5b60006060866001600160a01b031685876040518082805190602001908083835b602083106120225780518252601f199092019160209182019101612003565b6001836020036101000a03801982511681845116808217855250505050505090500191505060006040518083038185875af1925050503d8060008114612084576040519150601f19603f3d011682016040523d82523d6000602084013e612089565b606091505b50915091506120998282866121dd565b979650505050505050565b6001600160a01b0382166120ff576040805162461bcd60e51b815260206004820181905260248201527f4552433732313a206d696e7420746f20746865207a65726f2061646472657373604482015290519081900360640190fd5b612108816114b5565b15612159576040805162461bcd60e51b815260206004820152601c60248201527b115490cdcc8c4e881d1bdad95b88185b1c9958591e481b5a5b9d195960221b604482015290519081900360640190fd5b612165600083836109b7565b6001600160a01b038216600090815260026020526040902061218d908263ffffffff6119bd16565b506121a06003828463ffffffff6119c916565b5060405181906001600160a01b038416906000907fddf252ad1be2c89b69c2b068fc378daa952ba7f163c4a11628f55a4df523b3ef908290a45050565b606083156121ec575081611777565b8251156121fc5782518084602001fd5b60405162461bcd60e51b8152602060048201818152845160248401528451859391928392604401919085019080838360008315611b1e578181015183820152602001611b06565b828054600181600116156101000203166002900490600052602060002090601f016020900481019282601f1061228457805160ff19168380011785556122b1565b828001600101855582156122b1579182015b828111156122b1578251825591602001919060010190612296565b506122bd9291506122c1565b5090565b61087c91905b808211156122bd57600081556001016122c756fe456e756d657261626c655365743a20696e646578206f7574206f6620626f756e64734552433732313a207472616e7366657220746f206e6f6e20455243373231526563656976657220696d706c656d656e7465724f776e61626c653a206e6577206f776e657220697320746865207a65726f20616464726573734552433732313a207472616e7366657220746f20746865207a65726f2061646472657373416464726573733a20696e73756666696369656e742062616c616e636520666f722063616c6c4552433732313a206f70657261746f7220717565727920666f72206e6f6e6578697374656e7420746f6b656e4552433732313a20617070726f76652063616c6c6572206973206e6f74206f776e6572206e6f7220617070726f76656420666f7220616c6c4552433732313a2062616c616e636520717565727920666f7220746865207a65726f20616464726573734552433732313a206f776e657220717565727920666f72206e6f6e6578697374656e7420746f6b656e456e756d657261626c654d61703a20696e646578206f7574206f6620626f756e6473536166654d6174683a206d756c7469706c69636174696f6e206f766572666c6f774552433732313a20617070726f76656420717565727920666f72206e6f6e6578697374656e7420746f6b656e4f776e61626c653a2063616c6c6572206973206e6f7420746865206f776e65724552433732313a207472616e73666572206f6620746f6b656e2074686174206973206e6f74206f776e4552433732313a20617070726f76616c20746f2063757272656e74206f776e65724552433732313a207472616e736665722063616c6c6572206973206e6f74206f776e6572206e6f7220617070726f766564a2646970667358221220292745d9a3a10d7ebd9ec6e37db9cc6c5a103b9aa1ce3166711fb6646db658be64736f6c63430006060033",
  "immutableReferences": {},
  "source": "pragma solidity ^0.6.6;\n\nimport \"./DeckNFTBase.sol\";\n\ncontract DeckNFT is DeckNFTBase {\n    string public defaultURI;\n\n    constructor(\n        uint256 _mintFeePerToken,\n        uint256 _maxDeck,\n        string memory _defaultURI\n    )\n        public\n        DeckNFTBase(_mintFeePerToken, _maxDeck)\n    {\n      defaultURI = _defaultURI;\n    }\n\n    function baseTokenURI() public view returns (string memory) {\n        return defaultURI;\n    }\n\n    function setDefaultURI(string memory _defaultURI) public onlyOwner {\n        defaultURI = _defaultURI;\n    }\n\n\n    function tokenURI(uint256 _optionId) public view virtual override returns (string memory) {\n        return string(abi.encodePacked(defaultURI, Strings.toString(_optionId)));\n    }\n\n    /**\n     * @dev mint `numberToken` for msg.sender aka who call method.\n     * @param numberToken number token collector want to mint\n     */\n    function _mintDeck(uint256 numberToken) internal returns (bool) {\n        for (uint256 i = 0; i < numberToken; i++) {\n            uint256 tokenIndex = totalSupply();\n            if (tokenIndex < MAX_DECK) _safeMint(_msgSender(), tokenIndex);\n        }\n        return true;\n    }\n\n    function mintDeck(uint256 numberToken)\n        public\n        payable\n        online\n        mintable(numberToken, totalSupply())\n        returns (bool)\n    {\n        return _mintDeck(numberToken);\n    }\n}",
  "sourcePath": "/home/jkrantz/club52/contracts/DeckNFT.sol",
  "compiler": {
    "name": "solc",
    "version": "0.6.6+commit.6c089d02.Emscripten.clang"
  },
  "schemaVersion": "3.1.0",
  "updatedAt": "2021-08-03T03:14:58.683Z",
  "networkType": "ethereum",
  "devdoc": {
    "methods": {
      "approve(address,uint256)": {
        "details": "See {IERC721-approve}."
      },
      "balanceOf(address)": {
        "details": "See {IERC721-balanceOf}."
      },
      "baseURI()": {
        "details": "Returns the base URI set via {_setBaseURI}. This will be automatically added as a prefix in {tokenURI} to each token's URI, or to the token ID if no specific URI is set for that token ID."
      },
      "getApproved(uint256)": {
        "details": "See {IERC721-getApproved}."
      },
      "isApprovedForAll(address,address)": {
        "details": "See {IERC721-isApprovedForAll}."
      },
      "name()": {
        "details": "See {IERC721Metadata-name}."
      },
      "owner()": {
        "details": "Returns the address of the current owner."
      },
      "ownerOf(uint256)": {
        "details": "See {IERC721-ownerOf}."
      },
      "renounceOwnership()": {
        "details": "Leaves the contract without owner. It will not be possible to call `onlyOwner` functions anymore. Can only be called by the current owner.     * NOTE: Renouncing ownership will leave the contract without an owner, thereby removing any functionality that is only available to the owner."
      },
      "safeTransferFrom(address,address,uint256)": {
        "details": "See {IERC721-safeTransferFrom}."
      },
      "safeTransferFrom(address,address,uint256,bytes)": {
        "details": "See {IERC721-safeTransferFrom}."
      },
      "setApprovalForAll(address,bool)": {
        "details": "See {IERC721-setApprovalForAll}."
      },
      "supportsInterface(bytes4)": {
        "details": "See {IERC165-supportsInterface}.     * Time complexity O(1), guaranteed to always use less than 30 000 gas."
      },
      "symbol()": {
        "details": "See {IERC721Metadata-symbol}."
      },
      "toggleActive()": {
        "details": "change status from online to offline and vice versa"
      },
      "tokenByIndex(uint256)": {
        "details": "See {IERC721Enumerable-tokenByIndex}."
      },
      "tokenOfOwnerByIndex(address,uint256)": {
        "details": "See {IERC721Enumerable-tokenOfOwnerByIndex}."
      },
      "totalSupply()": {
        "details": "See {IERC721Enumerable-totalSupply}."
      },
      "transferFrom(address,address,uint256)": {
        "details": "See {IERC721-transferFrom}."
      },
      "transferOwnership(address)": {
        "details": "Transfers ownership of the contract to a new account (`newOwner`). Can only be called by the current owner."
      },
      "withdraw()": {
        "details": "withdraw ether to owner/admin wallet"
      }
    }
  },
  "userdoc": {
    "methods": {
      "withdraw()": {
        "notice": "ONLY owner can call this function"
      }
    }
  }
}